:020000040000FA
:10000000600200104901000051010000530100008E
:1000100000000000000000000000000000000000E0
:10002000000000000000000000000000550100007A
:10003000000000000000000057010000590100000E
:100040005B0100005B0100005B0100005B01000040
:100050005B0100005B0100005B0100005B01000030
:100060005B0100005B0100005B0100005B01000020
:100070005B0100005B0100005B0100005B01000010
:100080005B0100005B0100005B0100005B01000000
:100090005B0100005B0100005B0100005B010000F0
:1000A0005B0100005B0100005B0100005B010000E0
:1000B000750200005B0100005B0100005B010000B5
:1000C00000F002F800F030F80CA030C8083824180E
:1000D0002D18A246671EAB4654465D46AC4201D180
:1000E00000F022F87E460F3E0FCCB6460126334282
:1000F00000D0FB1AA246AB46334318473C0300002E
:100100004C0300000023002400250026103A01D3F0
:1001100078C1FBD8520700D330C100D50B607047BF
:100120001FB51FBD10B510BD00F02BF81146FFF72D
:10013000F7FF00F035F900F043F803B4FFF7F2FFE2
:1001400003BC00F049F80000074880470748004713
:10015000FEE7FEE7FEE7FEE7FEE7FEE704480549A7
:10016000034A054B7047000001030000C100000076
:1001700060000010600200106000001070477047BF
:100180007047754600F024F8AE46050069465346B0
:10019000C008C000854618B020B5FFF7DFFF60BC7F
:1001A00000274908B6460026C0C5C0C5C0C5C0C5A1
:1001B000C0C5C0C5C0C5C0C5403D49008D467047DB
:1001C00010B50446C046C0462046FFF7B6FF10BD36
:1001D000004870470000001001491820ABBEFEE740
:1001E00026000200704700001E4800680121090433
:1001F00008431C4908601C488068C008C0001A49B0
:1002000088600846806888600846806AC008C00028
:1002100088620846806A88621248006801210904E1
:1002200088431049086008460068402108430D498A
:1002300008600E480068012108430C4908600C481A
:10024000C06B012108430A49C863084800680221BD
:100250000843064908600648C06B02210843044968
:10026000C863704780800440004004400080025012
:10027000C03F02501C48806904210840042815D161
:100280001A48C06B400840001849C86300BF1848AE
:10029000C06B042108400428F9D11448C06B012127
:1002A00008431249C86304200F49C8610E48806999
:1002B00008210840082815D10C48C06B022188434A
:1002C0000A49C86300BF0A48C06B082108400828D3
:1002D000F9D10648C06B022108430449C8630820CD
:1002E0000149C8617047000000800350C03F0250C0
:1002F000C03F03500000000000000000FFFFFFFFB0
:1003000008B52548806B2021884323498863002055
:1003100022490862009003E000BF0098401C009052
:100320000098C828F8D301201C4940310860486073
:10033000002048600120486000BF184840304068F5
:10034000C007C00F0028F8D0232014498860124845
:10035000806B802188431049886300BF0F48C068C4
:10036000C007C00F0028F9D003200C4940310863B2
:1003700001204863002048630120486300BF07480C
:100380004030406BC007C00F0028F8D0012003495F
:100390004031886308BD00000082044000800440B2
:1003A000FFF722FF2148C069C008C0001F49C8618B
:1003B0001F480068042188431D4908601B48C06A23
:1003C000C008C0001949C86219480068082188435C
:1003D0001749086008460069042108431449086168
:1003E0000846006908210843114908610846406829
:1003F000042188430E494860084640680821884324
:100400000B4948600846C068042188430849C86011
:100410000846C068082188430549C8601C2001219E
:100420008140044A116000BF00BFFEE780400440E5
:100430000080035000E100E04804000000000010CC
:0804400060020000040100004D
:04000005000000C136
:00000001FF
